:100000000C9434000C9449000C9449000C94490061
:100010000C9449000C9449000C9449000C9449003C
:100020000C9449000C9449000C9449000C9449002C
:100030000C9449000C9449000C9449000C9449001C
:100040000C9449000C9449000C9449000C9449000C
:100050000C9449000C9449000C9449000C944900FC
:100060000C9449000C94490011241FBECFEFD8E036
:10007000DEBFCDBF11E0A0E0B1E0EAE4F1E002C0F4
:1000800005900D92A830B107D9F70E944B000C944F
:10009000A3000C940000CF93DF93CDB7DEB7289771
:1000A0000FB6F894DEBF0FBECDBF88E0E0E0F1E010
:1000B000DE01119601900D928A95E1F7CE01099625
:1000C0007C010E9478008E010F5F1F4FF801819123
:1000D0008F010E948200FFEF29E688E1F150204065
:1000E0008040E1F700C000000E151F0579F7E9CF49
:1000F0008AB180678AB908955D9A5D9808955E9A7D
:100100005E9808955D9890E020E030E008C05C9A29
:100110005E9A5E982F5F3F4F2830310589F0AC0121
:10012000022E02C0559547950A94E2F740FDEFCFA5
:100130005C985E9A5E982F5F3F4F2830310579F7C3
:0A0140005D9A5D980895F894FFCFD2
:08014A000102040810204080AE
:00000001FF
