:100000000C9434000C9451000C9451000C94510049
:100010000C9451000C9451000C9451000C9451001C
:100020000C9451000C9451000C9451000C9451000C
:100030000C9451000C9451000C94B6000C94510097
:100040000C9451000C9451000C9451000C945100EC
:100050000C9451000C9451000C9451000C945100DC
:100060000C9451000C94510011241FBECFEFD8E026
:10007000DEBFCDBF11E0A0E0B1E0E4E7F2E002C0F6
:1000800005900D92A430B107D9F711E0A4E0B1E0DA
:1000900001C01D92A830B107E1F70E9453000C94F3
:1000A00038010C940000CF93DF93CDB7DEB72897CB
:1000B0000FB6F894DEBF0FBECDBFF8940E94E300E8
:1000C00019821A821B821C8284E290E024E230E0D2
:1000D000F90120812062FC012083789483E590E07F
:1000E00023E530E0F90120812160FC01208388951F
:1000F00083E590E023E530E0F90120812E7FFC01CB
:1001000020830E941701DC01CB018D839E83AF8386
:10011000B8872D813E814F81588589819A81AB8135
:10012000BC81281B390B4A0B5B0B8091000190911D
:100130000101A0910201B0910301281739074A0774
:100140005B0798F085E290E025E230E0F90130812C
:1001500020E22327FC0120838D819E81AF81B88519
:1001600089839A83AB83BC83B9CFB8CF1F920F9298
:1001700000905F000F9211248F939F93AF93BF93D2
:10018000CF93DF93CDB7DEB7809104019091050145
:10019000A0910601B09107010196A11DB11D8093A8
:1001A000040190930501A0930601B0930701DF912C
:1001B000CF91BF91AF919F918F910F9000925F006F
:1001C0000F901F901895CF93DF93CDB7DEB784E4DF
:1001D00090E024E430E0F90120812260FC012083DA
:1001E0008EE690E02EE630E0F90120812260FC01ED
:1001F0002083789487E490E029EFFC01208386E453
:1002000090E0FC01108210920401109205011092FE
:1002100006011092070185E490E025E430E0F90141
:1002200020812360FC012083DF91CF910895CF933B
:10023000DF9300D000D0CDB7DEB7F89480910401F1
:1002400090910501A0910601B091070189839A83DD
:10025000AB83BC83789489819A81AB81BC81BC01DA
:10026000CD010F900F900F900F90DF91CF910895D7
:04027000F894FFCF30
:04027400FA0000008C
:00000001FF
