:100000000C9434000C9449000C9449000C94490061
:100010000C9449000C9449000C9449000C9449003C
:100020000C9449000C9449000C9449000C9449002C
:100030000C9449000C9449000C9449000C9449001C
:100040000C9449000C9449000C9449000C9449000C
:100050000C9449000C9449000C9449000C944900FC
:100060000C9449000C94490011241FBECFEFD8E036
:10007000DEBFCDBF11E0A0E0B1E0E4E1F2E002C0FC
:1000800005900D92A231B107D9F70E949E000C9401
:1000900008010C9400000E94DD003C9A3D9A2FEF6D
:1000A00089EF90E0215080409040E1F700C00000CF
:1000B0000895459895E09A95F1F700000E94E700B1
:1000C00085E08A95F1F70000449A95E09A95F1F75A
:1000D000000044988FE39FE10197F1F700C0000012
:1000E0000895459A95E09A95F1F700000E94E7007F
:1000F00085E08A95F1F70000449A95E09A95F1F72A
:10010000000044988FE39FE10197F1F700C00000E1
:1001100008951F93CF93DF93EC018881882351F0DA
:1001200010E00E9471001F5FFE01E10FF11D808150
:100130008111F7CFDF91CF911F9108950E944B005D
:100140008CE00E94590081E00E94590080E091E01B
:100150000E94890088E30E94590080EC0E945900A7
:1001600088E091E00E948900C0E0D0E0C830D1056D
:10017000B4F0C8E0D0E088E10E9459002FEF84E39A
:100180009CE0215080409040E1F700C000002197A2
:10019000209789F7C0E0D0E0C830D10554F78CE152
:1001A0000E9459002FEF84E39CE021508040904052
:1001B000E1F700C000002196D9CF8AB180678AB9E3
:1001C00008955D9A5D9808955E9A5E9808955D9889
:1001D00090E020E030E008C05C9A5E9A5E982F5F65
:1001E0003F4F2830310589F0AC01022E02C05595F1
:1001F00047950A94E2F740FDEFCF5C985E9A5E98CF
:100200002F5F3F4F2830310579F75D9A5D9808954B
:04021000F894FFCF90
:100214002A56494D414C2A002A4A415357414C2AF7
:020224000000D8
:00000001FF
