:100000000C9434000C9449000C9449000C94490061
:100010000C9449000C9449000C9449000C9449003C
:100020000C9449000C9449000C9449000C9449002C
:100030000C9449000C9449000C9449000C9449001C
:100040000C9449000C9449000C9449000C9449000C
:100050000C9449000C9449000C9449000C944900FC
:100060000C9449000C94490011241FBECFEFD8E036
:10007000DEBFCDBF11E0A0E0B1E0EAEBF1E002C0ED
:1000800005900D92A231B107D9F70E949C000C9403
:10009000DB000C9400008FEF8AB93C9A3D9A2FEF59
:1000A00089EF90E0215080409040E1F700C00000CF
:1000B0000895459895E09A95F1F700008BB985E091
:1000C0008A95F1F70000449A95E09A95F1F70000BF
:1000D00044988FE39FE10197F1F700C00000089575
:1000E000459A95E09A95F1F700008BB985E08A95DD
:1000F000F1F70000449A95E09A95F1F700004498D2
:100100008FE39FE10197F1F700C0000008951F936E
:10011000CF93DF93EC018881882351F010E00E9497
:1001200070001F5FFE01E10FF11D80818111F7CF8B
:10013000DF91CF911F9108950E944B008CE00E94A7
:10014000590081E00E94590080E091E00E94870000
:1001500088E30E94590080EC0E94590088E091E0F9
:100160000E948700C0E0D0E0C830D105B4F0C8E0FC
:10017000D0E088E10E9459002FEF84E39CE02150F9
:1001800080409040E1F700C000002197209789F758
:10019000C0E0D0E0C830D10554F78CE10E9459008E
:1001A0002FEF84E39CE0215080409040E1F700C0B5
:0A01B00000002196D9CFF894FFCF8C
:1001BA002A56494D414C2A002A4A415357414C2A52
:0201CA00000033
:00000001FF
