:100000000C9434000C9446000C9446000C9446006A
:100010000C9446000C9446000C9446000C94460048
:100020000C9446000C9446000C9446000C94460038
:100030000C9446000C9446000C9446000C94460028
:100040000C9446000C9446000C9446000C94460018
:100050000C9446000C9446000C9446000C94460008
:100060000C9446000C94460011241FBECFEFD8E03C
:10007000DEBFCDBF12E0A0E0B1E001C01D92AB3306
:10008000B107E1F70E94B0030C94D2030C94000076
:10009000FC012081243061F0253049F4FC011082FC
:1000A00012821182BC016A5F7F4F0C944A0308954B
:1000B000FC01108212821182BC016B5F7F4F0C9495
:1000C0004A030F93CF93DF93EC01BC016A5F7F4F2C
:1000D00000E024EF31E040E050E00E94F00261E0F7
:1000E000CE01DF91CF910F910C94CC03FC011082D3
:1000F0001282118213821482158216820895CF9380
:10010000DF93EC0160E00E94CC0381E088831A82D7
:100110001982DF91CF910895FC0120812230C9F02E
:10012000B0F0243059F02530D1F4FC011082128255
:100130001182BC016A5F7F4F0C944A03FC0110825C
:1001400012821182BC016B5F7F4F0C944A032130F5
:1001500029F4FC01108212821182089508950895F5
:10016000FC0181E09081911101C080E0089580E060
:1001700008950F93CF93DF93EC011A82198228819F
:100180002230A9F0233010F12430D1F1253031F4A0
:100190008B8181114AC08E81811151C089819A81E0
:1001A00001969A838983892B19F5223059F78B811F
:1001B000811160C08C81882389F318821A82198288
:1001C000CE010E94610085E088830EC0213031F7A6
:1001D0008C81882319F318821A82198261E0CE017A
:1001E0000E94CC0382E0888381E090E09A83898337
:1001F0001B821C821D821E82DF91CF910F91089578
:100200008B81811112C08D81882341F218821A825C
:100210001982BE016B5F7F4FCE010E944A03CE015F
:100220000E94610085E08883DFCFCE010E944800F4
:1002300060E0CE010E94CC0381E08883D5CF188294
:100240001A821982BE016A5F7F4FCE010E944A0363
:1002500000E024EF31E040E050E0BE016B5F7F4FF3
:10026000CE010E94F00260E0CE010E94CC0384E047
:100270008883BACF18821A821982DACF9C012B5F49
:100280003F4F621773073CF007966817790718F419
:1002900081E0FB0180830895FC01633009F150F493
:1002A0006130C1F0623021F481E09081923009F038
:1002B00080E00895643041F06530D1F781E09081AD
:1002C0009530B9F380E0F5CF81E09081943089F3E7
:1002D00080E0EFCF81E09081913059F380E0E9CF69
:1002E0009081935081E0933018F7089521E0FC014C
:1002F0002383089521E0FC01248308956F927F9267
:100300008F929F92AF92BF92CF92DF92EF92FF9225
:100310000F931F93CF93CE2DDC018D909D90AD90C8
:10032000BC901397181419041A041B041CF5149696
:10033000ED91FC911597A185B285AB2B49F13F0159
:10034000BFE06B0E711CC12CD12C7601C3940DC083
:10035000F301BFEFCB1ADB0AEB0AFB0AAFE06A0E30
:10036000711CA185B285AB2B99F0C814D904EA049D
:10037000FB0471F7CF911F910F91FF90EF90DF90E9
:10038000CF90BF90AF909F908F907F906F90089587
:10039000528741870083118322833383C483748708
:1003A0006387968785871582168217821086E2CF2B
:1003B0000F931F93CF93DF938B01DC014D915D91E0
:1003C0006D917C91139714161506160617060CF5F9
:1003D0001496ED91FC911597818592858017910770
:1003E000E9F09F01215F3F4F81E090E0A0E0B0E0A5
:1003F0000BC0F9010196A11DB11D215F3F4FC185C1
:10040000D285C017D10751F084179507A607B70703
:1004100081F7DF91CF911F910F9108951286118678
:1004200014861386DF91CF911F910F9108950F933A
:100430001F93FC017583648320833183428353833C
:1004400012161306140615064CF4DB011A961C92BC
:100450001E9219971E969C938E931D971783068361
:100460001F910F9108952F923F924F925F926F923A
:100470007F928F929F92AF92BF92CF92DF92EF9234
:10048000FF920F931F93CF93DF93CDB7DEB72897DB
:100490000FB6F894DEBF0FBECDBF1C0149835A834F
:1004A0006B837C83FC0180809180A280B3801814D0
:1004B00019041A041B040CF07AC0C12CD12C76014B
:1004C000C39418861F828481958113C0B701A60149
:1004D0002F813885215F3F4F38872F833FEFC31A25
:1004E000D30AE30AF30A481559056A057B050CF09F
:1004F0005EC0AF81B885A80FB91F19962D913C91A8
:100500001A973E832D83232B09F315964D905D900A
:100510006D907C9018970D911D912D913C911397A2
:1005200040165106620673068CF649815A816B812A
:100530007C81440E551E661E771E15964D925D9267
:100540006D927C92189740165106620673060CF461
:10055000BDCF1D96ED91FC911E970680F781E02D91
:100560006D817E811B968D919C911C970995F1015F
:1005700084819581EF81F885E80FF91F248122237A
:1005800081F04581568167817085008111812281CA
:100590003381401B510B620B730B4583568367837A
:1005A0007087F10180809180A280B3808FCF2896E0
:1005B0000FB6F894DEBF0FBECDBFDF91CF911F9174
:1005C0000F91FF90EF90DF90CF90BF90AF909F90F2
:1005D0008F907F906F905F904F903F902F900895F5
:1005E0004F925F926F927F92AF92BF92CF92DF92C3
:1005F000EF92FF920F93CF93DF93DB01C0902C0219
:10060000D0902D02E0902E02F0902F021C141D04B9
:100610001E041F04FCF4C0913002D09131026985A0
:100620007A85672B29F1FE013F96412C512C32012E
:1006300043940BC0EF016FEF461A560A660A760A1A
:100640003F96A984BA84AB2899F04C145D046E04DB
:100650007F0481F7DF91CF910F91FF90EF90DF90B2
:10066000CF90BF90AF907F906F905F904F90089524
:10067000BA87A987288339834A835B830C839C8745
:100680008B878CE292E09E878D871D821E821F825F
:100690001886E0CF0F931F93CF93DF938B01409188
:1006A0002C0250912D0260912E0270912F0214168F
:1006B0001506160617060CF5E0913002F09131028E
:1006C0008185928508171907E9F09F01215F3F4F47
:1006D00081E090E0A0E0B0E00BC0F9010196A11D1F
:1006E000B11D215F3F4FC185D2850C171D0751F009
:1006F00084179507A607B70781F7DF91CF911F9160
:100700000F9108951286118614861386DF91CF917A
:100710001F910F91089580E091E0909331028093B2
:100720003002ECE2F2E084E190E0A0E0B0E080830F
:100730009183A283B38310920A0110920901F0936E
:100740000E01E0930D018EE391E0909333028093CC
:1007500032020895AB01BC018CE292E00C943302AA
:10076000259A0E948B0384E392E00E94760084E342
:1007700092E00E947F006AE070E080E090E00E94DA
:10078000AA0384E392E00E94B9008FE39CE90197F9
:10079000F1F700C00000EFCF611102C02D9808955D
:0807A0002D9A0895F894FFCF93
:00000001FF
