:100000000C9434000C945F000C9446000C94460051
:100010000C9446000C9446000C9446000C94460048
:100020000C9446000C9446000C9446000C94460038
:100030000C9446000C9446000C948D000C944600E1
:100040000C9446000C9446000C9446000C94460018
:100050000C9446000C9446000C9446000C94460008
:100060000C9446000C94460011241FBECFEFD8E03C
:10007000DEBFCDBF11E0A0E0B1E001C01D92A43011
:10008000B107E1F70E944C000C94D5000C940000DD
:100090000E94B2000C94CA00F894259A52985A9A79
:1000A00080916900826080936900E89A789483B7B0
:1000B000816083BF889583B78E7F83BFF8CF1F92FF
:1000C0000F920FB60F9211242F933F934F935F938C
:1000D0006F937F938F939F93AF93BF93EF93FF9310
:1000E0000E94B2000E94CA00E099E09A4A9904C0B6
:1000F00085B190E2892785B9FF91EF91BF91AF91CA
:100100009F918F917F916F915F914F913F912F912F
:100110000F900FBE0F901F9018951F920F920FB661
:100120000F9211248F939F93AF93BF9380910001FF
:1001300090910101A0910201B09103010196A11DCE
:10014000B11D8093000190930101A0930201B0932F
:100150000301BF91AF919F918F910F900FBE0F90B0
:100160001F90189584B5826084BDEEE6F0E0808132
:1001700082608083789489EF87BD16BC109200015D
:1001800010920101109202011092030185B5836063
:1001900085BD0895F89460910001709101018091EE
:0E01A00002019091030178940895F894FFCF26
:00000001FF
