:100000000C943C000C9459000C9459000C94590029
:100010000C9459000C9459000C9459000C945900FC
:100020000C9459000C9459000C9459000C945900EC
:100030000C9459000C9459000C947E050C945900B2
:100040000C9459000C9459000C9459000C945900CC
:100050000C9459000C9459000C9459000C945900BC
:100060000C9459000C945900D601DC01E201E8011E
:10007000EE01F401D001CA0111241FBECFEFD8E078
:10008000DEBFCDBF11E0A0E0B1E0E2E7F1E102C0E8
:1000900005900D92AE32B107D9F712E0AEE2B1E0B1
:1000A00001C01D92A237B107E1F70E94B0040C9481
:1000B000B7080C940000CF93DF93EC018881823065
:1000C00011F0833019F418821A82198260E0CE018F
:1000D0000E94650587E088831A821982DF91CF919B
:1000E0000895CF93DF93EC0188818630F9F090F08A
:1000F000873011F0883019F418821A82198260E072
:10010000CE010E94650582E088831A821982DF9100
:10011000CF910895853099F718821A821982BE010D
:10012000685F7F4FCE010E94DA03E9CF18821A82FE
:100130001982BE01675F7F4FCE010E94DA03DFCFD5
:10014000FC0110821282118213821482158216829F
:100150001782108611860895CF93DF93EC0160E03B
:100160000E94650582E088831A821982DF91CF910F
:100170000895FC0180818530C9F048F0873019F07E
:1001800060F0883049F41082128211820895823022
:10019000D1F38330C1F30895089510821282118241
:1001A000BF01675F7F4FCF010C94DA031082128288
:1001B0001182BF01685F7F4FCF010C94DA03FC010D
:1001C00081E09081911101C080E0089580E0089560
:1001D0000F93CF93DF93EC011A82198288818530C7
:1001E00009F45DC0F0F0873009F473C070F1883015
:1001F00031F48D81811189C08F81811191C08981F4
:100200009A8101969A838983892B41F31B821C82F0
:100210001D821E821F8218861986DF91CF910F9151
:100220000895823059F1833051F78D81811174C066
:100230008C81882321F318821A82198260E0CE0112
:100240000E94650582E088835BC08D8181115DC05D
:100250008985811176C08E81882389F218821A825D
:100260001982BE01675F7F4FCE010E94DA0361E011
:10027000CE010E94650588E0888342C08D8181118E
:100280004BC08B81882309F4BACF18821A82198255
:1002900061E0CE010E94650583E0888331C08D81D5
:1002A000811133C08885811153C08F81882309F45F
:1002B000A6CF18821A821982BE01685F7F4FCE01D5
:1002C0000E94DA0360E0CE010E94650587E0888322
:1002D00017C08D81811119C08E81882309F48FCFB9
:1002E00018821A82198200E024EC39E040E050E0E4
:1002F000BE01685F7F4FCE010E94800385E0888346
:1003000081E090E09A83898381CFCE010E947100C1
:1003100089819A81019676CFCE010E945B006FCFD2
:1003200018821A82198200E024EC39E040E050E0A3
:10033000BE01675F7F4FCE010E94800386E0888305
:10034000DFCF18821A821982BE01675F7F4FB7CF55
:1003500018821A821982BE01685F7F4F85CF9C0187
:10036000285F3F4F621773073CF00A9668177907BA
:1003700018F481E0FB0180830895DC01462F50E0F2
:10038000415051094830510548F44C5C5F4FFA0127
:100390000C94E00581E09C91983009F080E008958C
:1003A00081E09C919730D9F380E0F9CF9C919150F6
:1003B00081E0933098F7089581E09C91923079F331
:1003C00080E0EDCF81E09C91933049F380E0E7CF6E
:1003D0009C91945081E0953008F7089581E09C91BC
:1003E0009530E9F280E0DBCF81E09C919630B9F264
:1003F00080E0D5CF21E0FC012383089521E0FC01BA
:100400002483089521E0FC012583089521E0FC0167
:100410002683089521E0FC01278308956F927F923F
:100420008F929F92AF92BF92CF92DF92EF92FF9204
:100430000F931F93CF93CE2DDC018D909D90AD90A7
:10044000BC901397181419041A041B041CF5149675
:10045000ED91FC911597A185B285AB2B49F13F0138
:10046000BFE06B0E711CC12CD12C7601C3940DC062
:10047000F301BFEFCB1ADB0AEB0AFB0AAFE06A0E0F
:10048000711CA185B285AB2B99F0C814D904EA047C
:10049000FB0471F7CF911F910F91FF90EF90DF90C8
:1004A000CF90BF90AF909F908F907F906F90089566
:1004B000528741870083118322833383C4837487E7
:1004C0006387968785871582168217821086E2CF0A
:1004D0000F931F93CF93DF938B01DC014D915D91BF
:1004E0006D917C91139714161506160617060CF5D8
:1004F0001496ED91FC91159781859285801791074F
:10050000E9F09F01215F3F4F81E090E0A0E0B0E083
:100510000BC0F9010196A11DB11D215F3F4FC1859F
:10052000D285C017D10751F084179507A607B707E2
:1005300081F7DF91CF911F910F9108951286118657
:1005400014861386DF91CF911F910F9108950F9319
:100550001F93FC017583648320833183428353831B
:1005600012161306140615064CF4DB011A961C929B
:100570001E9219971E969C938E931D971783068340
:100580001F910F9108952F923F924F925F926F9219
:100590007F928F929F92AF92BF92CF92DF92EF9213
:1005A000FF920F931F93CF93DF93CDB7DEB72897BA
:1005B0000FB6F894DEBF0FBECDBF1C0149835A832E
:1005C0006B837C83FC0180809180A280B3801814AF
:1005D00019041A041B040CF07AC0C12CD12C76012A
:1005E000C39418861F828481958113C0B701A60128
:1005F0002F813885215F3F4F38872F833FEFC31A04
:10060000D30AE30AF30A481559056A057B050CF07D
:100610005EC0AF81B885A80FB91F19962D913C9186
:100620001A973E832D83232B09F315964D905D90E9
:100630006D907C9018970D911D912D913C91139781
:1006400040165106620673068CF649815A816B8109
:100650007C81440E551E661E771E15964D925D9246
:100660006D927C92189740165106620673060CF440
:10067000BDCF1D96ED91FC911E970680F781E02D70
:100680006D817E811B968D919C911C970995F1013E
:1006900084819581EF81F885E80FF91F2481222359
:1006A00081F04581568167817085008111812281A9
:1006B0003381401B510B620B730B45835683678359
:1006C0007087F10180809180A280B3808FCF2896BF
:1006D0000FB6F894DEBF0FBECDBFDF91CF911F9153
:1006E0000F91FF90EF90DF90CF90BF90AF909F90D1
:1006F0008F907F906F905F904F903F902F900895D4
:100700004F925F926F927F92AF92BF92CF92DF92A1
:10071000EF92FF920F93CF93DF93DB01C0905A02C9
:10072000D0905B02E0905C02F0905D021C141D040E
:100730001E041F04FCF4C0915E02D0915F02698523
:100740007A85672B29F1FE013F96412C512C32010D
:1007500043940BC0EF016FEF461A560A660A760AF9
:100760003F96A984BA84AB2899F04C145D046E04BA
:100770007F0481F7DF91CF910F91FF90EF90DF9091
:10078000CF90BF90AF907F906F905F904F90089503
:10079000BA87A987288339834A835B830C839C8724
:1007A0008B878AE592E09E878D871D821E821F823D
:1007B0001886E0CF0F931F93CF93DF938B01409167
:1007C0005A0250915B0260915C0270915D021416B6
:1007D0001506160617060CF5E0915E02F0915F0211
:1007E0008185928508171907E9F09F01215F3F4F26
:1007F00081E090E0A0E0B0E00BC0F9010196A11DFE
:10080000B11D215F3F4FC185D2850C171D0751F0E7
:1008100084179507A607B70781F7DF91CF911F913E
:100820000F9108951286118614861386DF91CF9159
:100830001F910F9108958EE291E090935F02809353
:100840005E02EAE5F2E084E190E0A0E0B0E08083BF
:100850009183A283B3831092380110923701F093F1
:100860003C01E0933B018FEA91E090936102809319
:1008700060020895AB01BC018AE592E00C94C302CA
:1008800097B121E030E0082E01C0220F0A94EAF768
:100890002095292327B9ECE7F0E0808380818064EC
:1008A0008083808180628083EAE7F0E080818760D6
:1008B0008083808180688083089580917A0080643D
:1008C00080937A0080917A0086FDFCCF8091790038
:1008D00090E0089584B18C6184B987B1807F87B935
:1008E00088B18F6088B985B18C6185B908952A98DF
:1008F00085B1886185B98FE99FE00197F1F700C064
:100900000000309B2BC080E0319B84E3329B87E367
:10091000339B8AE22B9895B1946195B995E09A95AD
:10092000F1F70000309B82E3319B85E3329B88E343
:10093000339B80E32C9895B19C6095B995E09A958E
:10094000F1F70000309B83E3319B86E3329B89E320
:10095000339B83E295B1937E95B9089581E3D4CF1B
:10096000CF93DF9300D000D01F92CDB7DEB70E94A7
:100970006B0584E00E9440040E94AE05259A0E9407
:100980006A040E941B0484E692E00E94A00084E6B0
:1009900092E00E94AC000E94A3054B015C0184E13F
:1009A000880E911CA11CB11C8E010F5F1F4F87E1A7
:1009B000E82E81E0F82E98E7792E4BC090916202E4
:1009C000891749F0813309F46BC0823309F46FC091
:1009D000833309F473C0809362020E945D046C014A
:1009E00088E7C816D10408F048C084E692E00E9467
:1009F000060280E091E00E94C705DF92CF92FF924D
:100A0000EF921F930F930E94E605C8010E94C7054D
:100A10008AE191E00E94C7051F927F92FF92EF92B8
:100A20001F930F930E94E605C8010E94C7058AE044
:100A30000E94C0050FB6F894DEBF0FBECDBF62E3C3
:100A400070E080E090E00E943A0484E692E00E9428
:100A5000E80083B7816083BF889583B78E7F83BFAB
:100A60000E94A305681579058A059B0558F48091B5
:100A700063028111A3CF80E0AECF84E692E00E94B2
:100A80000A02B7CF0E947704809363020E94A305F5
:100A90004B015C0194E1890E911CA11CB11CE7CFB4
:100AA00084E692E00E94FA018091630294CF84E68A
:100AB00092E00E94FE01809163028DCF84E692E075
:100AC0000E9402028091630286CF611102C02D98BC
:100AD00008952D9A089582E084BD80936E007894E5
:100AE00016BC89EF87BD10926E0210926F021092B1
:100AF00070021092710283E085BD08951F920F92DB
:100B00000FB60F9211248F939F93AF93BF93809151
:100B10006E0290916F02A0917002B09171020196E5
:100B2000A11DB11D80936E0290936F02A09370027D
:100B3000B0937102BF91AF919F918F910F900FBEB3
:100B40000F901F901895F89460916E0270916F024B
:100B5000809170029091710278940895E1ECF0E038
:100B600080818861808388E690E09093C5008093BF
:100B7000C4000895E1ECF0E08081806880830895EE
:100B80009091C00095FFFCCF8093C6000895FC01B2
:100B90003081332371F040E04F5F2091C00025FF8A
:100BA000FCCF3093C600FC01E40FF11D3081311100
:100BB000F3CF08958091C000881F8827881F08956B
:100BC000EE0FFF1F0590F491E02D0994AEE0B0E028
:100BD000ECEEF5E00C948E080D891E8986E08C837E
:100BE0001A8309838FEF9FE79E838D83AE01475E53
:100BF0005F4F6F89788DCE0101960E940806EF81C4
:100C0000F885E00FF11F10822E96E4E00C94AA08FC
:100C1000ACE0B0E0EEE0F6E00C9480087C016B0103
:100C20008A01FC0117821682838181FFBDC1CE013A
:100C300001964C01F7019381F60193FD859193FF95
:100C400081916F01882309F4ABC1853239F493FD9A
:100C5000859193FF81916F01853229F4B70190E06E
:100C60000E94F007E7CF512C312C20E02032A0F475
:100C70008B3269F030F4803259F0833269F42061AC
:100C80002CC08D3239F0803339F4216026C02260C7
:100C9000246023C0286021C027FD27C030ED380F15
:100CA0003A3078F426FF06C0FAE05F9E300D11243A
:100CB000532E13C08AE0389E300D1124332E20624B
:100CC0000CC08E3221F426FD6BC1206406C08C3628
:100CD00011F4206802C0883641F4F60193FD859135
:100CE00093FF81916F018111C1CF982F9F7D955402
:100CF000933028F40C5F1F4FFFE3F9830DC0833658
:100D000031F0833771F0833509F05BC022C0F80100
:100D1000808189830E5F1F4F44244394512C5401DA
:100D200015C03801F2E06F0E711CF801A080B1808F
:100D300026FF03C0652D70E002C06FEF7FEFC50195
:100D40002C870E94E5072C0183012C852F77222E0A
:100D500017C03801F2E06F0E711CF801A080B1805D
:100D600026FF03C0652D70E002C06FEF7FEFC50165
:100D70002C870E94DA072C012C852068222E830103
:100D800023FC1BC0832D90E048165906B0F4B70130
:100D900080E290E00E94F0073A94F4CFF50127FC3E
:100DA000859127FE81915F01B70190E00E94F007D5
:100DB00031103A94F1E04F1A51084114510471F77F
:100DC000E5C0843611F0893639F5F80127FF07C0F0
:100DD00060817181828193810C5F1F4F08C06081A7
:100DE0007181882777FD8095982F0E5F1F4F2F7692
:100DF000B22E97FF09C090958095709561957F4FB1
:100E00008F4F9F4F2068B22E2AE030E0A4010E944D
:100E10002208A82EA81844C0853729F42F7EB22EA8
:100E20002AE030E025C0F22FF97FBF2E8F36C1F0C7
:100E300018F4883579F0B4C0803719F0883721F07C
:100E4000AFC02F2F2061B22EB4FE0DC08B2D846059
:100E5000B82E09C024FF0AC09F2F9660B92E06C085
:100E600028E030E005C020E130E002C020E132E0BF
:100E7000F801B7FE07C060817181828193810C5FA8
:100E80001F4F06C06081718180E090E00E5F1F4FB0
:100E9000A4010E942208A82EA818FB2DFF77BF2EC0
:100EA000B6FE0BC02B2D2E7FA51450F4B4FE0AC045
:100EB000B2FC08C02B2D2E7E05C07A2C2B2D03C032
:100EC0007A2C01C0752C24FF0DC0FE01EA0DF11D26
:100ED0008081803311F4297E09C022FF06C07394FB
:100EE000739404C0822F867809F0739423FD13C095
:100EF00020FF06C05A2C731418F4530C5718732C87
:100F0000731468F4B70180E290E02C870E94F00728
:100F100073942C85F5CF731410F4371801C0312C5D
:100F200024FF12C0B70180E390E02C870E94F007F5
:100F30002C8522FF17C021FF03C088E590E002C086
:100F400088E790E0B7010CC0822F867859F021FD28
:100F500002C080E201C08BE227FD8DE2B70190E084
:100F60000E94F007A51438F4B70180E390E00E94D6
:100F7000F0075A94F7CFAA94F401EA0DF11D80818D
:100F8000B70190E00E94F007A110F5CF332009F4DB
:100F900051CEB70180E290E00E94F0073A94F6CF7C
:100FA000F7018681978102C08FEF9FEF2C96E2E1D7
:100FB0000C949C08FC010590615070400110D8F71A
:100FC000809590958E0F9F1F0895FC016150704091
:100FD00001900110D8F7809590958E0F9F1F08956E
:100FE0000F931F93CF93DF93182F092FEB018B8162
:100FF00081FD03C08FEF9FEF20C082FF10C04E81A4
:101000005F812C813D81421753077CF4E881F9818F
:101010009F012F5F3F4F39832883108306C0E885E7
:10102000F985812F0995892B29F72E813F812F5F23
:101030003F4F3F832E83812F902FDF91CF911F91C0
:101040000F910895FA01AA27283051F1203181F13A
:10105000E8946F936E7F6E5F7F4F8F4F9F4FAF4FC0
:10106000B1E03ED0B4E03CD0670F781F891F9A1FD3
:10107000A11D680F791F8A1F911DA11D6A0F711D87
:10108000811D911DA11D20D009F468943F912AE093
:10109000269F11243019305D3193DEF6CF0108957B
:1010A000462F4770405D4193B3E00FD0C9F7F6CFAC
:1010B000462F4F70405D4A3318F0495D31FD405274
:1010C000419302D0A9F7EACFB4E0A695979587950A
:1010D00077956795BA95C9F70097610571050895E9
:1010E0009B01AC010A2E0694579547953795279595
:1010F000BA95C9F7620F731F841F951FA01D08952D
:101100002F923F924F925F926F927F928F929F9217
:10111000AF92BF92CF92DF92EF92FF920F931F9305
:10112000CF93DF93CDB7DEB7CA1BDB0B0FB6F894B6
:10113000DEBF0FBECDBF09942A88398848885F84F6
:101140006E847D848C849B84AA84B984C884DF8067
:10115000EE80FD800C811B81AA81B981CE0FD11D4B
:101160000FB6F894DEBF0FBECDBFED010895F89421
:02117000FFCFAF
:101172002043757272656E742056616C7565206FBE
:10118200662041444320002569002054687265733B
:0E119200686F6C6456616C756520697320008F
:00000001FF
