:100000000C9434000C9446000C9446000C9446006A
:100010000C9446000C9446000C9446000C94460048
:100020000C9446000C9446000C9446000C94460038
:100030000C9446000C9446000C9446000C94460028
:100040000C9446000C9446000C9446000C94460018
:100050000C9446000C9446000C9446000C94460008
:100060000C9446000C94460011241FBECFEFD8E03C
:10007000DEBFCDBF12E0A0E0B1E001C01D92A93308
:10008000B107E1F70E9430030C9452030C94000076
:10009000FC011082128211821382148208950F9340
:1000A000CF93DF93EC01BC016D5F7F4F00E024EF45
:1000B00031E040E050E00E94700281E088831A82C3
:1000C0001982DF91CF910F910895FC012081213099
:1000D00061F0223049F4FC01108212821182BC01CD
:1000E0006C5F7F4F0C94CA020895FC01108212824B
:1000F0001182BC016D5F7F4F0C94CA02FC0181E04C
:100100009081911101C080E0089580E008950F93DF
:10011000CF93DF93EC011A82198228810CC0223020
:1001200019F48C81811130C089819A8101969A835A
:100130008983892B19F5213091F78B818823A1F3CD
:1001400018821A821982BE016D5F7F4FCE010E9414
:10015000CA0261E0CE010E944C0300E028EE33E0C9
:1001600040E050E0BE016C5F7F4FCE010E94700204
:1001700082E0888381E090E09A8389831B821C82DD
:10018000DF91CF910F91089518821A821982BE01D2
:100190006C5F7F4FCE010E94CA0260E0CE010E94D8
:1001A0004C0300E024EF31E040E050E0BE016D5F21
:1001B0007F4FCE010E94700281E08883DBCF9C01DB
:1001C0002D5F3F4F621773073CF00596681779075C
:1001D00018F481E0FB0180830895FC01613041F057
:1001E000623021F481E09081923009F080E008953E
:1001F00081E090819130D9F380E0F9CF6F927F92C6
:100200008F929F92AF92BF92CF92DF92EF92FF9226
:100210000F931F93CF93CE2DDC018D909D90AD90C9
:10022000BC901397181419041A041B041CF5149697
:10023000ED91FC911597A185B285AB2B49F13F015A
:10024000BFE06B0E711CC12CD12C7601C3940DC084
:10025000F301BFEFCB1ADB0AEB0AFB0AAFE06A0E31
:10026000711CA185B285AB2B99F0C814D904EA049E
:10027000FB0471F7CF911F910F91FF90EF90DF90EA
:10028000CF90BF90AF909F908F907F906F90089588
:10029000528741870083118322833383C483748709
:1002A0006387968785871582168217821086E2CF2C
:1002B0000F931F93CF93DF938B01DC014D915D91E1
:1002C0006D917C91139714161506160617060CF5FA
:1002D0001496ED91FC911597818592858017910771
:1002E000E9F09F01215F3F4F81E090E0A0E0B0E0A6
:1002F0000BC0F9010196A11DB11D215F3F4FC185C2
:10030000D285C017D10751F084179507A607B70704
:1003100081F7DF91CF911F910F9108951286118679
:1003200014861386DF91CF911F910F9108950F933B
:100330001F93FC017583648320833183428353833D
:1003400012161306140615064CF4DB011A961C92BD
:100350001E9219971E969C938E931D971783068362
:100360001F910F9108952F923F924F925F926F923B
:100370007F928F929F92AF92BF92CF92DF92EF9235
:10038000FF920F931F93CF93DF93CDB7DEB72897DC
:100390000FB6F894DEBF0FBECDBF1C0149835A8350
:1003A0006B837C83FC0180809180A280B3801814D1
:1003B00019041A041B040CF07AC0C12CD12C76014C
:1003C000C39418861F828481958113C0B701A6014A
:1003D0002F813885215F3F4F38872F833FEFC31A26
:1003E000D30AE30AF30A481559056A057B050CF0A0
:1003F0005EC0AF81B885A80FB91F19962D913C91A9
:100400001A973E832D83232B09F315964D905D900B
:100410006D907C9018970D911D912D913C911397A3
:1004200040165106620673068CF649815A816B812B
:100430007C81440E551E661E771E15964D925D9268
:100440006D927C92189740165106620673060CF462
:10045000BDCF1D96ED91FC911E970680F781E02D92
:100460006D817E811B968D919C911C970995F10160
:1004700084819581EF81F885E80FF91F248122237B
:1004800081F04581568167817085008111812281CB
:100490003381401B510B620B730B4583568367837B
:1004A0007087F10180809180A280B3808FCF2896E1
:1004B0000FB6F894DEBF0FBECDBFDF91CF911F9175
:1004C0000F91FF90EF90DF90CF90BF90AF909F90F3
:1004D0008F907F906F905F904F903F902F900895F6
:1004E0004F925F926F927F92AF92BF92CF92DF92C4
:1004F000EF92FF920F93CF93DF93DB01C0902C021A
:10050000D0902D02E0902E02F0902F021C141D04BA
:100510001E041F04FCF4C0913002D09131026985A1
:100520007A85672B29F1FE013F96412C512C32012F
:1005300043940BC0EF016FEF461A560A660A760A1B
:100540003F96A984BA84AB2899F04C145D046E04DC
:100550007F0481F7DF91CF910F91FF90EF90DF90B3
:10056000CF90BF90AF907F906F905F904F90089525
:10057000BA87A987288339834A835B830C839C8746
:100580008B878CE292E09E878D871D821E821F8260
:100590001886E0CF0F931F93CF93DF938B01409189
:1005A0002C0250912D0260912E0270912F02141690
:1005B0001506160617060CF5E0913002F09131028F
:1005C0008185928508171907E9F09F01215F3F4F48
:1005D00081E090E0A0E0B0E00BC0F9010196A11D20
:1005E000B11D215F3F4FC185D2850C171D0751F00A
:1005F00084179507A607B70781F7DF91CF911F9161
:100600000F9108951286118614861386DF91CF917B
:100610001F910F91089580E091E0909331028093B3
:100620003002ECE2F2E084E190E0A0E0B0E0808310
:100630009183A283B38310920A0110920901F0936F
:100640000E01E0930D018FED90E0909333028093C3
:1006500032020895AB01BC018CE292E00C94B3012C
:10066000259A0E940B0384E392E00E94480084E3F1
:1006700092E00E944F006AE070E080E090E00E940B
:100680002A0384E392E00E9487008FE39CE90197AC
:10069000F1F700C00000EFCF611102C02D9808955E
:0806A0002D9A0895F894FFCF94
:00000001FF
