:100000000C9434000C943E000C943E000C943E0082
:100010000C943E000C943E000C943E000C943E0068
:100020000C943E000C943E000C943E000C943E0058
:100030000C943E000C943E000C943E000C943E0048
:100040000C943E000C943E000C943E000C943E0038
:100050000C943E000C943E000C943E000C943E0028
:100060000C943E000C943E0011241FBECFEFD8E04C
:10007000DEBFCDBF0E94D2000C9403010C9400009F
:1000800084B18C6184B987B1807F87B988B18F6072
:1000900088B985B18C6185B908952A9885B1886140
:1000A00085B985E08A95F1F70000309B28C080E093
:1000B000319B84E3329B87E3339B8AE22B9895B193
:1000C000946195B995E09A95F1F70000309B82E331
:1000D000319B85E3329B88E3339B80E32C9895B179
:1000E0009C6095B995E09A95F1F70000309B83E309
:1000F000319B86E3329B89E3339B83E2089581E35E
:10010000D7CF8FEF8AB93C9A3D9A2FEF89EF90E0D5
:10011000215080409040E1F700C0000008954598CC
:1001200095E09A95F1F700008BB985E08A95F1F793
:100130000000449A95E09A95F1F7000044988FE307
:100140009FE10197F1F700C000000895459A95E0FE
:100150009A95F1F700008BB985E08A95F1F70000D8
:10016000449A95E09A95F1F7000044988FE39FE157
:100170000197F1F700C0000008951F93CF93DF931C
:10018000EC018881882351F010E00E94A6001F5FD7
:10019000FE01E10FF11D80818111F7CFDF91CF9139
:1001A0001F9108950E9481000E9440008FE00E94EC
:1001B0008F0081E00E948F00D0E00CC00E94A6005A
:1001C0002FEF89EF90E0215080409040E1F700C090
:1001D0000000DC2F0E944D00C82F882389F38D1763
:1001E00079F38A3231F0833249F781E00E948F003F
:1001F000E7CF80E10E948F0080E20E94A60080E1AC
:0A0200000E948F00DDCFF894FFCFBD
:00000001FF
