:100000000C9434000C943E000C943E000C943E0082
:100010000C943E000C943E000C943E000C943E0068
:100020000C943E000C943E000C943E000C943E0058
:100030000C943E000C943E000C943E000C943E0048
:100040000C943E000C943E000C943E000C943E0038
:100050000C943E000C943E000C943E000C943E0028
:100060000C943E000C943E0011241FBECFEFD8E04C
:10007000DEBFCDBF0E94FD000C941B010C9400005C
:1000800084B1876084B987B1807F87B988B18F6078
:1000900088B985B1876085B90895289885B186604B
:1000A00085B925E02A95F1F70000309B28C080E053
:1000B000319B84E3329B87E3339B28C0299895B119
:1000C000956095B995E09A95F1F70000309B82E331
:1000D000319B85E3329B88E3339B80E32A9895B17B
:1000E000936095B925E02A95F1F70000309B83E3F2
:1000F000319B86E3329B89E3339B03C0089581E300
:10010000D7CF81E00E94BA0083E2089580E10E9487
:10011000BA008FEF99EF20E0815090402040E1F746
:1001200000C0000080E20E94D1008FEF99EF20E034
:10013000815090402040E1F700C0000080E10E9423
:10014000BA008FEF99EF20E0815090402040E1F716
:1001500000C0000080E2B2CF8FEF8AB93C9A3D9A8E
:100160002FEF89EF90E0215080409040E1F700C0F0
:1001700000000895459895E09A95F1F700008BB935
:1001800085E08A95F1F70000449A95E09A95F1F799
:10019000000044988FE39FE10197F1F700C0000051
:1001A0000895459A95E09A95F1F700008BB985E09E
:1001B0008A95F1F70000449A95E09A95F1F70000CE
:1001C00044988FE39FE10197F1F700C00000089584
:1001D0001F93CF93DF93EC018881882351F010E0C7
:1001E0000E94D1001F5FFE01E10FF11D808181118E
:1001F000F7CFDF91CF911F9108950E94AC000E942C
:1002000040008EE00E94BA0081E00E94BA00D0E077
:100210000E944D00C82F882319F08D130E94D10031
:100220002FEF89EF90E0215080409040E1F700C02F
:0A0230000000DC2FEDCFF894FFCFA3
:00000001FF
