:100000000C9434000C9446000C9446000C9446006A
:100010000C9434010C9446000C9446000C94460059
:100020000C9446000C9446000C9446000C94460038
:100030000C9446000C9446000C9446000C94460028
:100040000C9446000C9446000C9446000C94460018
:100050000C9446000C9446000C9446000C94460008
:100060000C9446000C94460011241FBECFEFD8E03C
:10007000DEBFCDBF11E0A0E0B1E001C01D92A23013
:10008000B107E1F70E94E1000C9469010C940000B3
:1000900084B18C6184B987B1807F87B988B18F6062
:1000A00088B985B1837E85B908952A9885B188611C
:1000B00085B98FE99FE00197F1F700C00000309B00
:1000C0002BC080E0319B84E3329B87E3339B8AE241
:1000D0002B9895B1946195B995E09A95F1F7000048
:1000E000309B82E3319B85E3329B88E3339B80E343
:1000F0002C9895B19C6095B995E09A95F1F7000020
:10010000309B83E3319B86E3329B89E3339B83E21D
:1001100095B1937E95B9089581E3D4CF0E943E01B5
:100120003C9A3D9A2FEF89EF90E02150804090401B
:10013000E1F700C000000895459895E09A95F1F721
:1001400000000E94480185E08A95F1F70000449A7A
:1001500095E09A95F1F7000044988FE39FE10197AD
:10016000F1F700C000000895459A95E09A95F1F7DF
:1001700000000E94480185E08A95F1F70000449A4A
:1001800095E09A95F1F7000044988FE39FE101977D
:10019000F1F700C0000008951F93CF93DF93EC01A7
:1001A0008881882351F010E00E94B4001F5FFE0197
:1001B000E10FF11D80818111F7CFDF91CF911F9168
:1001C00008950E948E000E9448008FE00E949C00CB
:1001D00081E00E949C0080916800826080936800AA
:1001E00080916C008F6080936C00789417C0909120
:1001F0000001891741F08A3259F1833219F10E94C6
:10020000B40080910101809300012FEF89EF90E00D
:10021000215080409040E1F700C0000083B781602A
:1002200083BF889583B78E7F83BFF8940E94550063
:10023000809301017894D99A809101018111D7CFDF
:1002400080E0E1CF81E00E949C0080910101DBCF42
:1002500080E10E949C0080E20E94B40080E10E9444
:100260009C0080910101CFCF1F920F920FB60F9289
:1002700011240F900FBE0F901F9018958AB18067C0
:100280008AB908955D9A5D9808955E9A5E9808957A
:100290005D9890E020E030E008C05C9A5E9A5E983D
:1002A0002F5F3F4F2830310589F0AC01022E02C08C
:1002B000559547950A94E2F740FDEFCF5C985E9A1A
:1002C0005E982F5F3F4F2830310579F75D9A5D9832
:0602D0000895F894FFCF31
:00000001FF
