:100000000C9434000C9449000C9449000C94490061
:100010000C9449000C9449000C9449000C9449003C
:100020000C9449000C9449000C9449000C9449002C
:100030000C9449000C9449000C9449000C9449001C
:100040000C9449000C9449000C9449000C9449000C
:100050000C9449000C9449000C9449000C944900FC
:100060000C9449000C94490011241FBECFEFD8E036
:10007000DEBFCDBF11E0A0E0B1E0E8E7F1E002C0F3
:1000800005900D92A830B107D9F70E949C000C94FE
:10009000BA000C9400008FEF8AB93C9A3D9A2FEF7A
:1000A00089EF90E0215080409040E1F700C00000CF
:1000B0000895459895E09A95F1F700008BB985E091
:1000C0008A95F1F70000449A95E09A95F1F70000BF
:1000D00044988FE39FE10197F1F700C00000089575
:1000E000459A95E09A95F1F700008BB985E08A95DD
:1000F000F1F70000449A95E09A95F1F700004498D2
:100100008FE39FE10197F1F700C0000008951F936E
:10011000CF93DF93EC018881882351F010E00E9497
:1001200070001F5FFE01E10FF11D80818111F7CF8B
:10013000DF91CF911F9108950E944B008FE00E94A4
:10014000590081E00E94590086E50E94700089E60E
:100150000E9470008DE60E94700081E60E9470008F
:100160008CE60E94700080E091E00E94870080E0B1
:0801700090E00895F894FFCF20
:080178004A617377616C00001D
:00000001FF
