:100000000C9434000C9449000C9449000C94490061
:100010000C9449000C9449000C9449000C9449003C
:100020000C9449000C9449000C9449000C9449002C
:100030000C9449000C9449000C9449000C9449001C
:100040000C9449000C9449000C9449000C9449000C
:100050000C9449000C9449000C9449000C944900FC
:100060000C9449000C94490011241FBECFEFD8E036
:10007000DEBFCDBF11E0A0E0B1E0E6EEF0E002C0EF
:1000800005900D92A231B107D9F70E944B000C9454
:1000900071000C9400008FEF8AB924982C9A8FE39A
:1000A0008BB930E021E04FE310C0E32FF0E0EE0F1A
:1000B000FF1FE050FF4F80818BB93F5FEFE3FCE90A
:1000C0003197F1F700C00000292F83B1982F90716C
:1000D00084FDF4CF222391F3393038F34BB930E06B
:0600E000EDCFF894FFCF04
:1000E6006F007F0007007D006D0066004F005B001B
:0200F600060002
:00000001FF
